:100000000C942A000C9447000C9447000C94470071
:100010000C9447000C9447000C9447000C947F0DFF
:100020000C9447000C9447000C9447000C94470034
:100030000C9447000C9447000C9447000C94470024
:100040000C9447000C9447000C9447000C94470014
:100050000C94470011241FBECFE5D8E0DEBFCDBF12
:1000600011E0A0E6B0E0E0EFF1E402C005900D92EF
:10007000AA3FB107D9F716E0AAEFB1E001C01D927F
:10008000A03BB107E1F70E94B8100C94F6200C9445
:100090000000E0916900F0916A003196F0936A00E7
:1000A000E0936900EE0FFF1FE35CFA4F808311823B
:1000B0000895E0916900F0916A00EE0FFF1FE35C84
:1000C000FA4F80819181089581E090E0209169004C
:1000D00030916A004FEF2F3F340711F080E090E03D
:1000E00008950E946400009749F4809169009091FE
:1000F0006A00019790936A008093690008952091A7
:100100006700309168002F5F3F4F30936800209365
:100110006700F901EE0FFF1F2E0F3F1FF901EF558A
:10012000FA4F9183808308958091670090916800D1
:10013000FC01EE0FFF1FE80FF91FEF55FA4F80810A
:100140009181089581E090E02091670030916800EE
:100150004FEF2F3F340711F080E090E008950E94A8
:10016000A200009749F48091670090916800019780
:10017000909368008093670008958D3259F08A3219
:1001800059F08B3259F08F3259F080538A3050F445
:1001900080E0089581E0089581E0089581E0089568
:1001A00081E0089582E008958A3269F08F3269F023
:1001B0008B3211F08D3259F46A3259F081E06F328E
:1001C00049F480E0089581E0089581E0089581E098
:1001D000089580E008952F923F924F925F926F9220
:1001E0007F928F929F92AF92BF92CF92DF92EF92C7
:1001F000FF920F931F93CF93DF9300D000D000D0D6
:10020000CDB7DEB7562EFE01319626E0DF011D92F6
:100210002A95E9F7662309F4A4C0882E992E640173
:10022000AA24BB2410E00F2EF2E46F2EF6E07F2EFE
:10023000F02DEE24E3944424862F90E01C010894D2
:1002400021083108F40101914F01802F0E94BD0067
:100250008823F1F5E1E0F0E0EC0FFD1FE10FF11D67
:100260000083D4018C910E94BD00813029F0A2143A
:10027000B30411F01F5F54C00091040210E0CE01DE
:1002800001960E94ED1D9801220F331F200F311F90
:10029000260D371DF9019183808340910402842F3C
:1002A00090E09C01220F331F820F931F860D971D34
:1002B000DC0112961C924F5F40930402CE0101961E
:1002C00060E270E046E050E00E94141E142D28C049
:1002D000813031F513C020910402E22FF0E0CF010C
:1002E000880F991FE80FF91FE60DF71D0083F182B3
:1002F000E2822F5F209304020E9471000E9464003A
:10030000009751F40E945900082FF92EF6016081E0
:100310000E94D4008823F9F6D6018C910E944900EE
:100320000894A11CB11C0894C11CD11CA51408F48C
:1003300089CF17C0F09004020F2D10E00E945900E1
:100340009801220F331F020F131FF601E00FF11F58
:1003500091838083E282F394F09204020E94710000
:1003600008C00F2EF2E4CF2EF6E0DF2EF02DEE24A3
:10037000E3940E9464000097E9F2809104028823CC
:10038000D1F100E00F2EF2E4EF2EF6E0FF2EF02D7B
:100390000F2EF0E6CF2EF0E0DF2EF02D802F90E034
:1003A000FC01EE0FFF1FE80FF91FEE0DFF1D22816C
:1003B0002223E1F400D000D0EDB7FEB7D282C18293
:1003C0009C01220F331F820F931FF701E80FF91FC3
:1003D00080819181ADB7BEB714969C938E9313978D
:1003E0000E94531E0F900F900F900F900F5F8091FF
:1003F0000402081798F226960FB6F894DEBF0FBED7
:10040000CDBFDF91CF911F910F91FF90EF90DF90C3
:10041000CF90BF90AF909F908F907F906F905F90A4
:100420004F903F902F900895CF939C01C62FC69573
:1004300040E070E0842F90E0F901E80FF91F50814F
:10044000DB01A81BB90BA20FB31F8C9180835C93B7
:100450004F5FC41778F7CF910895EF92FF920F93F3
:100460001F93CF937C01C0E00CC087010C0F111DBE
:100470000E945900F80180830E947100CF5FC093F1
:1004800037060E946400009781F36C2F6150C7010A
:100490000E941402CF911F910F91FF90EF90089549
:1004A000CF92DF92EF92FF920F931F93CF93DF9340
:1004B00080910402882309F453C0C0E0D0E0FE011B
:1004C000EE0FFF1FEC0FFD1FEE5BF94F0081118156
:1004D0008281882321F4C8010E947F0038C00E94D5
:1004E00094006C010E94AF000E9494007C010E9465
:1004F000AF000B32110571F00C32110524F40A32F1
:10050000110529F51BC00D32110551F00F321105EF
:10051000F1F40CC0C7018C0D9D1D0E947F0017C017
:10052000C7018C199D090E947F0011C0C701B60147
:100530000E944E1DCB010E947F0009C0EC9CC001AF
:10054000ED9C900DFC9C900D11240E947F00219643
:1005500080910402815080930402882309F0AFCF78
:10056000DF91CF911F910F91FF90EF90DF90CF908F
:100570000895E82FF92FDF010D900020E9F7BD0164
:10058000615070406E1B7F0B609337060E94EB003A
:100590000E9450020E94940068E376E04AE050E036
:1005A0000E942A1E02C00E94AF000E94A200009773
:1005B000D1F388E396E00E94F20980E2EDE1F5E0F4
:1005C000DF011D928A95E9F70895CF93DF9380911B
:1005D0000702813071F48DE390E00E94030ACDE1BF
:1005E000D5E0CE010E942D02CE010E94B9021092E8
:1005F0000702DF91CF91089581E080930902089569
:1006000020910A02FC01E20FF11D2081222371F0EA
:100610005D9BFECF2CB920910A022F5F20930A0226
:10062000FC01E20FF11D2081222391F70895109221
:10063000A3061092A4061092A206089580930502C4
:100640001092A20681E0809308020895809305022B
:100650008091A2068F5F8093A20682E080930802B9
:10066000089583E08093080208958F32C1F08033AB
:1006700050F48C3228F48A3290F48032C9F412C0DB
:100680008D32B1F40CC08A3318F08D3389F40DC06B
:100690000E941E038DE690E00E94000308950E94D0
:1006A000260308950E943103089581E08093070294
:1006B000089584E0809308020895809109028823B8
:1006C00009F0A2C080910802813011F58091A30643
:1006D0008F3071F41092A3068091A4068F5F8093EF
:1006E000A4068091A4066091A3060E94DC0905C0BF
:1006F0008091A3068F5F8093A306809105020E94DC
:100700004900809105020E94FA091092080208959A
:100710008230C9F58091A206813011F58091A3063F
:100720008F3071F41092A3068091A4068F5F80939E
:10073000A4068091A4066091A3060E94DC0905C06E
:100740008091A3068F5F8093A306809105020E948B
:10075000FA09809105020E9449001092080208954A
:100760008091A206823008F451C080E10E94690A9B
:10077000809105020E944900809105020E94FA09B9
:10078000109208020895843079F40E94EE091092C4
:10079000A3061092A4068091A4066091A3060E946D
:1007A000DC09109208020895833081F58091A40637
:1007B000813081F48091A306882361F48FE08093D7
:1007C000A3061092A4068091A4066091A3060E943D
:1007D000DC0908C08091A30681508093A30680E1C4
:1007E0000E94690A8091A306803110F01092A3063E
:1007F0000E947100109208028091A306882331F4B0
:1008000081E00E94690A0895109209020895982FC4
:10081000990F890F8E5108956F927F928F929F92B8
:10082000AF92BF92DF92EF92FF920F931F93CF93FD
:10083000DF93C0E0D0E0FF24DD24D3940F2EFAE351
:100840008F2E9924F02DAA24BB24A3940F2EFBE312
:100850006F2E7724F02DCE01880F991F880F991FD6
:100860008C0F9D1F8C010D581F4FD8018C91982F14
:100870009A50963008F059C01196EC90B7E0BE152A
:1008800008F455C0F8019281992301F50E940704EC
:10089000F401E81BF10980818083D8018C910E94CA
:1008A0000704F301E81BF1092081C501D801119665
:1008B0000C90119702C0880F991F0A94E2F71396C3
:1008C0009C9113978923282B20832AC09F3F39F5B9
:1008D0000E940704F401E81BF1092081C50102C050
:1008E000880F991FEA94E2F7822B8083F8018081B8
:1008F0000E940704F301E81BF10980819501D801EA
:1009000011960C90119702C0220F331F0A94E2F740
:1009100014969C9114972923822B808301C0FD2C6F
:10092000FE01E55FFD4FD08203C0FD2C01C0FD2C10
:10093000C031D10529F02196B1E0FB1609F08BCF2B
:100940008F2DDF91CF911F910F91FF90EF90DF904E
:10095000BF90AF909F908F907F906F9008950E946E
:1009600007042AE330E0281B3109F90110820895B9
:100970000E9407042AE330E0281B31098FEFF901B8
:1009800080830895CF93C62F0E9407042BE330E0A5
:10099000281B3109F901C083CF910895CF93DF93CC
:1009A000813108F045C0282F30E0E901CC0FDD1F70
:1009B000CC0FDD1FC20FD31FCD58DF4F9A819F3F51
:1009C000B9F5EBE0F2E0E80FF11D8081813081F5AF
:1009D0006F3F11F06130A9F488810E9407042BE376
:1009E00030E0F901E81BF109408121E030E0C90164
:1009F000098002C0880F991F0A94E2F7842B808334
:100A000017C06623A9F488810E9407042BE330E015
:100A1000F901E81BF109408121E030E0C9010980BA
:100A200002C0880F991F0A94E2F78095842380837F
:100A3000DF91CF910895CF93C42F6F3F11F06130B4
:100A400059F40E9407042BE330E0F901E81BF10997
:100A50008081C82BC0830DC0662359F40E9407040F
:100A60002BE330E0F901E81BF1098081C095C82330
:100A7000C083CF9108950E94070429E330E0281B2A
:100A80003109F90180818093FA018091FA0108957A
:100A9000CF93DF93813100F590E0EC01CC0FDD1FA7
:100AA000CC0FDD1FC80FD91FCD58DF4F88810E94A2
:100AB000070429E330E0281B3109F9018081809384
:100AC000FA018091FA0190E0098002C0959587951E
:100AD0000A94E2F7817000C0DF91CF9108958FB73B
:100AE00080688FBF08958FB78F778FBF08959FB7A6
:100AF0006BB7282F30E02B5F3F4F41E050E0CA0139
:100B000002C0880F991F2A95E2F7862B8BBF80E0E1
:100B10000895882391F09FB745B7262F30E090E0E5
:100B20000197880F991FB90102C0660F771F8A9538
:100B3000E2F7642B65BF80E00895633030F084B73E
:100B40006074682B64BF80E0089581E008956AB7FF
:100B5000282F30E02B5F3F4F41E050E0CA0102C038
:100B6000880F991F2A95E2F7862B8ABF08958CE09B
:100B70006FEF0E94C20408951F93CF93DF9380E02C
:100B800060E00E94CE0481E060E00E94CE0482E03A
:100B900060E00E94CE0483E060E00E94CE048CE01E
:100BA0000E943B0582958F7080959FEF9ABB8F7056
:100BB00009F483C180911C0290911D02009709F0F5
:100BC00087C180E060E00E94CE0481E06FEF0E9468
:100BD000CE0482E06FEF0E94CE0483E06FEF0E94AC
:100BE000CE0484E00E944805C82F85E00E94480595
:100BF000182F86E00E944805D82F87E00E944805FC
:100C0000110FDD0FDD0FD12BCD2B880F880F880F33
:100C1000C82BCF70CF3071F1CE3041F4E0916B0032
:100C2000F0916C008091C80009951DC0CD3041F451
:100C3000E0916B00F0916C008091C900099513C0A0
:100C4000CB3041F4E0916B00F0916C008091CA00D0
:100C5000099509C0C73039F4E0916B00F0916C0040
:100C60008091CB00099581E090E090931D028093E4
:100C70001C022EC180911C0290911D02009709F068
:100C800027C181E060E00E94CE0480E06FEF0E9407
:100C9000CE0482E06FEF0E94CE0483E06FEF0E94EB
:100CA000CE0484E00E944805D82F85E00E944805C4
:100CB000C82F86E00E944805182F87E00E9448054B
:100CC000CC0F110F110FC12BDC2B880F880F880F51
:100CD000D82BCD2FCF70CF3071F1CE3041F4E091D1
:100CE0006B00F0916C008091CC00099514C0CD3060
:100CF00041F4E0916B00F0916C008091CD0009957A
:100D000013C0CB3041F4E0916B00F0916C00809106
:100D1000CE00099509C0C73039F4E0916B00F0911D
:100D20006C008091CF00099581E090E090931D02C6
:100D300080931C02CDC080911C0290911D020097EF
:100D400009F0C6C080E06FEF0E94CE0481E06FEF33
:100D50000E94CE0482E060E00E94CE0483E06FEF48
:100D60000E94CE0484E00E944805D82F85E00E94AE
:100D70004805C82F86E00E944805182F87E00E948A
:100D80004805CC0F110F110FC12BDC2B880F880FDA
:100D9000880FD82BCD2FCF70CF3071F1CE3041F4EA
:100DA000E0916B00F0916C008091D000099514C027
:100DB000CD3041F4E0916B00F0916C008091D10056
:100DC000099513C0CB3041F4E0916B00F0916C00B9
:100DD0008091D200099509C0C73039F4E0916B00C9
:100DE000F0916C008091D300099581E090E09093A0
:100DF0001D0280931C026CC080911C0290911D0208
:100E0000009709F065C080E06FEF0E94CE0481E09A
:100E10006FEF0E94CE0482E06FEF0E94CE0483E069
:100E200060E00E94CE0484E00E944805D82F85E04F
:100E30000E944805C82F86E00E944805182F87E0C9
:100E40000E944805CC0F110F110FC12BDC2B880F0E
:100E5000880F880FD82BCD2FCF70CF30C9F1CE306F
:100E600041F4E0916B00F0916C008091D400099501
:100E700014C0CD3041F4E0916B00F0916C00809192
:100E8000D500099513C0CB3041F4E0916B00F0918F
:100E90006C008091D600099509C0C73039F4E09103
:100EA0006B00F0916C008091D700099581E090E093
:100EB00090931D0280931C020BC080911C029091A4
:100EC0001D028130910521F410921D0210921C0226
:100ED000DF91CF911F910895AF92BF92CF92DF9291
:100EE000EF92FF920F931F93CF93DF936C01E62E47
:100EF000F42E8AE190E00E9491098C01009709F498
:100F000062C080911E0290911F02009739F51093E4
:100F10001F0200931E02C1E2D2E0CE010E94670BC5
:100F2000CE0109960E94670BC3E3D2E0CE010E9476
:100F3000670B0F2EFCE3AF2EF2E0BF2EF02DC501A4
:100F40000E94670B85E492E00E94670BD0934F02EA
:100F5000C0934E02B0925102A0925002CE2DE110E9
:100F6000C1E0F801118E108EC68BF78AC192D19222
:100F70007F01CF010E94750BC8010C960E94750B72
:100F8000F80111870087138B028B85E090E08C1BA2
:100F9000910995878487868990912002981710F48B
:100FA0008093200290E09C01220F331F220F331FF9
:100FB000220F331F820F931F8F5D9D4FB7010E9439
:100FC000790B81E001C08FEFDF91CF911F910F91DD
:100FD000FF90EF90DF90CF90BF90AF9008950F9368
:100FE0001F93CF93DF938B01C0915202D091530294
:100FF000C80FD91F80911E0290911F0202960E9475
:10100000DF0BE0911E02F0911F02D383C283809117
:10101000520290915302C817D90750F4BF016E5F76
:101020007F4F80915002909151020E94A20B09C003
:10103000BF016E5F7F4F80914E0290914F020E94E0
:10104000A20B0115110549F060911E0270911F025B
:10105000645F7F4FC8010E94A20BDF91CF911F9167
:101060000F910895CF92DF92EF92FF920F931F930B
:10107000CF93DF93809145028823B9F10F2EFAE4D4
:10108000EF2EF2E0FF2EF02D0F2EF5E4CF2EF2E042
:10109000DF2EF02DF894D701ED91FC91C681D78118
:1010A000CE010C960E94DF0B78948E010E5F1F4FCD
:1010B000C8010E94DF0B8E8990912002981710F4CE
:1010C0008093200290E09C01220F331F220F331FD8
:1010D000220F331F820F931F8F5D9D4FB8010E9417
:1010E000790BF60180818823A9F60E94C81220910D
:1010F000540230915502821B930B909357028093B8
:10110000560274C020915202309153022F5F3F4F1C
:101110003093530220935202019790935702809389
:1011200056022115310581F480914E0290914F02B3
:10113000209150023091510230934F0220934E0281
:101140009093510280935002E0914E02F0914F0231
:101150008081882309F44AC00580F681E02DC6818C
:10116000D7812A813B81809152029091530282174C
:10117000930778F43BC00580F681E02DC681D781C6
:101180002A813B81809152029091530282179307EA
:1011900068F1F8948E010E5F1F4FC8010E94DF0BAB
:1011A0008C899D89009721F0CE010C960E94DF0B5F
:1011B00078948E8990912002981710F480932002E1
:1011C00090E09C01220F331F220F331F220F331F89
:1011D000820F931F8F5D9D4FB8010E94790BE091A4
:1011E0004E02F0914F028081882329F680915602A9
:1011F00090915702009709F085CF8091520290910B
:101200005302909355028093540220912002822F22
:1012100090E0FC01EE0FFF1FEE0FFF1FEE0FFF1F10
:10122000E80FF91FEF5DFD4F30813323D9F42223FE
:1012300031F447C0222319F42093200242C02150E8
:10124000822F90E0FC01EE0FFF1FEE0FFF1FEE0F4D
:10125000FF1FE80FF91FEF5DFD4F3081332351F37E
:1012600020932002FC01EE0FFF1FEE0FFF1FEE0F79
:10127000FF1F8E0F9F1FFC01EF5DFD4FA181B2810B
:1012800012960D90BC91A02DB283A183CF0103963D
:10129000A817B90731F412968D919C9113979283F8
:1012A00081830180F281E02DA681B781B0931F0276
:1012B000A0931E02ED91FC911197CD0157966C9170
:1012C0000995DF91CF911F910F91FF90EF90DF90E3
:1012D000CF9008950F931F93CF93DF93DC01159662
:1012E000ED91FC91169706811781E8012C96CE01AD
:1012F0000E94DF0B85E492E0BE010E94790BE09131
:101300001E02F0911F0281E0D80156962C9156974B
:101310009689291708F480E0DF91CF911F910F91F2
:1013200008950F931F93CF93DF93EC010E94C21295
:101330000091580210915902C00FD11F82E0C835A8
:10134000D80750F40C171D0750F4065A1D4FD093C0
:101350005902C093580205C000E010E002C000E04E
:1013600010E00E94A013802F912FDF91CF911F9149
:101370000F910895089510925902109258020895FD
:10138000209158023091590288E592E0821B930B1C
:1013900008958AE060E00E94CE0487EC90E0019717
:1013A000F1F700C000008AE06FEF0E94CE040895BC
:1013B00081E08093B6040895882319F0813051F4B8
:1013C00006C08091D800680F6093D80003C06054B5
:1013D0006093D80081E08093B304089581E0809306
:1013E000B504089521E02093B4049093A806809357
:1013F000A706089591E09093B2048093A9060895FA
:1014000081118FEF0895CF93C82F88E06FEF0E946E
:10141000CE0489E060E00E94CE048C2F80710E948F
:10142000000A682F8BE00E94CE048C2F80720E94ED
:10143000000A682F8CE00E94CE048C2F80740E94DA
:10144000000A682F8DE00E94CE048C2F80780E94C5
:10145000000A682F8EE00E94CE0487EC90E001978E
:10146000F1F700C000000E94C90987EC90E00197E5
:10147000F1F700C000008C2F81700E94000A682FD5
:101480008BE00E94CE048C2F82700E94000A682F8D
:101490008CE00E94CE048C2F84700E94000A682F7A
:1014A0008DE00E94CE048C2F88700E94000A682F65
:1014B0008EE00E94CE0487EC90E00197F1F700C027
:1014C00000000E94C90995ED9A95F1F70000CF91AF
:1014D0000895CF93C82F88E060E00E94CE0489E091
:1014E00060E00E94CE048C2F80710E94000A682F59
:1014F0008BE00E94CE048C2F80720E94000A682F1D
:101500008CE00E94CE048C2F80740E94000A682F09
:101510008DE00E94CE048C2F80780E94000A682FF4
:101520008EE00E94CE0487EC90E00197F1F700C0B6
:1015300000000E94C90987EC90E00197F1F700C014
:1015400000008C2F81700E94000A682F8BE00E949F
:10155000CE048C2F82700E94000A682F8CE00E94BB
:10156000CE048C2F84700E94000A682F8DE00E94A8
:10157000CE048C2F88700E94000A682F8EE00E9493
:10158000CE0487EC90E00197F1F700C000000E94C4
:10159000C90987EC90E00197F1F700C00000CF91F6
:1015A00008958091B704813089F0813030F0823025
:1015B00099F1833009F07AC071C08091B60481300E
:1015C00029F48093B7041092B80470C08091B804D5
:1015D000823071F0833018F48130A9F405C0833073
:1015E00059F0843081F40CC083E30E94690A0BC077
:1015F00082E30E94690A07C088E20E94690A03C068
:101600008FE00E94690A8091B804883008F44EC0C7
:1016100082E08093B7044AC08091B504813051F4D0
:101620000E94690AE0917100F09172000995109290
:10163000B5043CC08091B404813021F483E08093F0
:10164000B7042CC08091B204813061F48091A90666
:101650000E94030AE0917100F091720009951092C6
:10166000B20424C08091B304813001F58091D80088
:101670000E94690AE0917100F09172000995109240
:10168000B30414C00E94030A8091A7069091A80693
:1016900001969093A8068093A70608C0E091A7063C
:1016A000F091A8068081882339F0ECCF8091B804AE
:1016B0008F5F8093B8040895E0917100F0917200FB
:1016C000099582E08093B7041092B404EFCFFC0137
:1016D0000396928381832FEF3FEF34832383968396
:1016E00085839087878310820895FC011186108678
:1016F0000895CF93DF93EC01FB0189819A81DC018E
:1017000012962D913C9113973383228329813A813C
:101710003583248312962D913C911397D901159608
:101720007C936E931497DC0113967C936E931297BF
:101730007A836983D187C08788818F5F8883DF91AF
:10174000CF910895CF93DF93AC01EB0128813981CC
:101750008FEF2F3F380721F4FA01A781B08518C019
:10176000DA011396FA0185819681FC0180819181CD
:101770002817390768F012960D90BC91A02D12968B
:10178000ED91FC911397808191812817390798F783
:101790001296ED91FC911397FB83EA83D583C48362
:1017A000BD83AC831396DC93CE93129759874887F9
:1017B000FA0180818F5F8083DF91CF910895FC01D2
:1017C000A281B3818481958115969C938E93149701
:1017D000A481B5818281938113969C938E931297F5
:1017E000A085B18511968D919C9112978E179F07B8
:1017F00031F48481958112969C938E931197118672
:1018000010868C9181508C93089521E1FC012083F6
:10181000319732E23083FC013297A3E3A083FC01CD
:1018200033976083FC0134977083FC0135971082F5
:10183000FC01369760E86083FC0137971082FC0159
:10184000389762E06083FC01399763E06083FC01B4
:101850003A9764E06083FC013B9765E06083FC019C
:101860003C9766E06083FC013D9767E06083FC0184
:101870003E9768E06083FC013F9769E06083FC016C
:10188000709760E16083FC0171972083FC0172977F
:1018900022E12083FC01739723E12083FC017497EC
:1018A00024E12083FC01759725E12083FC017697D4
:1018B00026E12083FC01779727E12083FC017897BC
:1018C00028E12083FC01799729E12083FC017A97A4
:1018D00020E22083FC017B9721E22083FC017C979E
:1018E0003083FC017D9723E22083FC017E974083B7
:1018F000FC017F975083FC01B09726E22083FC0116
:10190000B19727E22083FC01B29728E22083FC01F3
:10191000B39729E22083FC01B49720E32083FC01E4
:10192000B59721E32083869708951BBC89EF8ABD74
:101930008BE08EBD89B7806189BFA091B904B09159
:10194000BA04CD91CDBFDD91DEBFFF91EF91DF9164
:10195000CF91BF91AF919F918F917F916F915F9147
:101960004F913F912F911F910F91FF90EF90DF903A
:10197000CF90BF90AF909F908F907F906F905F902F
:101980004F903F902F901F900F900FBE0F90089593
:1019900081E0089508950F920FB6F8940F921F9268
:1019A00011242F923F924F925F926F927F928F926B
:1019B0009F92AF92BF92CF92DF92EF92FF920F93DE
:1019C0001F932F933F934F935F936F937F938F93C7
:1019D0009F93AF93BF93CF93DF93EF93FF93A09128
:1019E000B904B091BA040DB60D920EB60D920E94D4
:1019F000CE14A091B904B091BA04CD91CDBFDD91C0
:101A0000DEBFFF91EF91DF91CF91BF91AF919F9199
:101A10008F917F916F915F914F913F912F911F9186
:101A20000F91FF90EF90DF90CF90BF90AF909F907D
:101A30008F907F906F905F904F903F902F901F906E
:101A40000F900FBE0F9008950F920FB6F8940F925B
:101A50001F9211242F923F924F925F926F927F922A
:101A60008F929F92AF92BF92CF92DF92EF92FF92AE
:101A70000F931F932F933F934F935F936F937F9396
:101A80008F939F93AF93BF93CF93DF93EF93FF9386
:101A9000A091B904B091BA040DB60D920EB60D9294
:101AA0000E94DA120E94CE14A091B904B091BA0437
:101AB000CD91CDBFDD91DEBFFF91EF91DF91CF9151
:101AC000BF91AF919F918F917F916F915F914F9156
:101AD0003F912F911F910F91FF90EF90DF90CF904A
:101AE000BF90AF909F908F907F906F905F904F903E
:101AF0003F902F901F900F900FBE0F9008950E945F
:101B0000240D1895CF93DF93DC01CD91DC911197D3
:101B1000209721F15C964C915C9716962D913C9103
:101B20001797240F311D17963C932E9316971296F4
:101B3000ED91FC9113972E173F0720F01796DC9339
:101B4000CE93169716963C91169717962C91862F42
:101B5000972F632F722F50E00E940B1EDF91CF91C1
:101B60000895CF93DF93EC012C8D2223A9F1442318
:101B7000B9F48C819D81422F50E00E940B1E2C8D68
:101B80008C819D81820F911D9D838C832A813B8155
:101B90008217930708F1888199819D838C831CC0EB
:101BA0008E819F81422F50E00E940B1E4C8D50E091
:101BB000509541955F4F8E819F81840F951F9F8324
:101BC0008E83288139818217930730F48A819B8123
:101BD000480F591F5F834E838A8D8F5F8A8FDF91F5
:101BE000CF9108950F931F93CF93DF93EC010FB61E
:101BF000F8940F928E8D1816BCF48989882329F4E5
:101C000013C08989882321F40FC08E010F5E1F4FF6
:101C1000C8010E944815882311F00E94D1158E8DAD
:101C200081508E8F18166CF38FEF8E8F0F900FBE32
:101C30000FB6F8940F928D8D1816BCF48885882302
:101C400029F413C08885882321F40FC08E01085F12
:101C50001F4FC8010E944815882311F00E94D1151A
:101C60008D8D81508D8F18166CF38FEF8D8F0F90A7
:101C70000FBEDF91CF911F910F910895AF92BF9248
:101C8000CF92DF92EF92FF920F931F93CF93DF9348
:101C9000F82EE62E882309F446C08FE190E00E94DA
:101CA00091098C01009709F441C0CF2CDD24AE2CA2
:101CB000BB24CA9CE001CB9CD00DDA9CD00D112432
:101CC000CE0101960E949109AC01F80191838083B5
:101CD000009719F1C80FD91FD383C283128E958341
:101CE0008483C6010197A89E9001A99E300DB89EDD
:101CF000300D1124240F351F37832683F38EE48E95
:101D00008FEF858F868FC80108960E94670BC801E8
:101D100041960E94670BC8010BC0C8010E94BA0916
:101D200080E090E005C080E090E002C080E090E0BC
:101D3000DF91CF911F910F91FF90EF90DF90CF90A7
:101D4000BF90AF9008958F929F92BF92CF92DF92F3
:101D5000EF92FF920F931F93CF93DF9300D000D0A9
:101D60000F92CDB7DEB78C014B015D834C83B22E51
:101D7000FF24EE24E394CC24DD246894C3F8C80E39
:101D8000D91E0FB6F8940F92F801928D838D981793
:101D9000A8F4C801B4014B2D0E94B10DF80181894E
:101DA000882341F0C80141960E944815813011F402
:101DB0000E94CB0C0F900FBE81E052C08C819D81A0
:101DC000009721F40F900FBE80E04AC0FF2029F455
:101DD000CE0101960E949015FE2C0F900FBE0E941E
:101DE000C2120FB6F8940F92F801858D8F3F09F457
:101DF000158EF801868D8F3F09F4168E0F900FBE59
:101E0000CE010196BE016C5F7F4F0E949B15882317
:101E100009F50FB6F8940F92F801928D0F900FBE4E
:101E2000F801838D981781F46C817D81C6010E9431
:101E30002B15C8010E94F20D0E94A013882309F0FF
:101E4000A0CF0E94CB0C9DCFC8010E94F20D0E9432
:101E5000A01397CFC8010E94F20D0E94A01380E04A
:101E60000F900F900F900F900F90DF91CF911F91D7
:101E70000F91FF90EF90DF90CF90BF909F908F9049
:101E800008950F931F93CF93DF93EC018A019A8DEE
:101E90008B8D9817C0F4CE01422F0E94B10D8E8D0C
:101EA0008F3F69F48989882381F0CE0141960E9491
:101EB0004815882361F081E0F801808309C08F5FB5
:101EC0008E8F81E005C080E003C081E001C081E029
:101ED000DF91CF911F910F9108958F929F92BF92A2
:101EE000CF92DF92EF92FF920F931F93CF93DF93E6
:101EF00000D000D00F92CDB7DEB78C014B015D83CF
:101F00004C83B22EFF24EE24E3940F2EF1E1CF2E6A
:101F1000DD24F02DC80ED91E0FB6F8940F92F801EB
:101F2000828D882351F1E680F780C801B4010E94B8
:101F3000820DBB2081F4F801828D8150828F8085D3
:101F40008823B9F0C80108960E944815813089F4A9
:101F50000E94CB0C0EC0F801F782E68281898823AB
:101F600041F0C80141960E944815882311F00E9453
:101F7000CB0C0F900FBE81E050C08C819D810097EB
:101F800021F40F900FBE80E048C0FF2029F4CE015D
:101F900001960E949015FE2C0F900FBE0E94C21257
:101FA0000FB6F8940F92F801858D8F3F09F4158EC6
:101FB000F801868D8F3F09F4168E0F900FBECE016B
:101FC0000196BE016C5F7F4F0E949B158823F9F438
:101FD0000FB6F8940F92F801828D0F900FBE8823F0
:101FE00081F46C817D81C6010E942B15C8010E947D
:101FF000F20D0E94A013882309F08ECF0E94CB0C13
:102000008BCFC8010E94F20D0E94A01385CFC8019A
:102010000E94F20D0E94A01380E00F900F900F908D
:102020000F900F90DF91CF911F910F91FF90EF9044
:10203000DF90CF90BF909F908F9008950F931F9344
:10204000CF93DF93EC018A018A8D8823D1F0CE01F2
:102050000E94820D8A8D81508A8F8D8D8F3F69F409
:102060008885882381F0CE0108960E944815882330
:1020700061F081E0F801808309C08F5F8D8F81E07E
:1020800005C080E003C081E001C081E0DF91CF9115
:102090001F910F9108950FB6F8940F92FC01828D55
:1020A0000F900FBE0895FC01828D0895CF93DF93AA
:1020B000EC01888199810E94BA09CE010E94BA0977
:1020C000DF91CF910895FC01928D81E0911180E024
:1020D0000895FC01228D81E0938D291380E00895FD
:1020E000CF93DF9300D0CDB7DEB70E94C8129A839A
:1020F0008983CE01019664E170E00E9484140E94FD
:10210000E502F7CFCF93DF9300D0CDB7DEB70E94C3
:10211000C8129A838983CE01019665E070E00E941F
:1021200084140E945D03F7CFCF93DF9300D0CDB727
:10213000DEB70E94C8129A838983CE0101966AE0B5
:1021400070E00E9484140E94BC05F7CFCF93DF9308
:1021500000D0CDB7DEB70E94C8129A838983CE0122
:10216000019662E070E00E9484140E94D10AF7CFC9
:1021700086EA90E160E070E045E550E020E030E084
:1021800001E0EE24FF24CC24DD24AA24BB240E94F9
:102190002E1182E890E160E070E045E550E020E03B
:1021A00030E002E00E942E1184E990E160E070E0EE
:1021B00045E550E020E030E003E00E942E1180E78A
:1021C00090E160E070E045E550E020E030E004E0C0
:1021D0000E942E110E940C040E94D8090E94B7058B
:1021E0000E9417030E9469160E949112FFCFCF939D
:1021F000DF93EC01E091B904F091BA0493838283F8
:102200008091C1049091C204C817D90768F48091E5
:10221000C5049091C6046091B9047091BA046E5FD0
:102220007F4F0E94A20B17C08091C7049091C804F1
:102230006091B9047091BA046E5F7F4F0E94A20B47
:102240008091E6009091E700C817D90720F4D09359
:10225000E700C093E600DF91CF9108954F925F921F
:102260006F927F928F929F92BF92CF92DF92EF9266
:10227000FF920F931F93CF93DF932C014B01EA0141
:102280003901B02E81E290E00E9491098C01009703
:1022900009F4E2C0C114D10409F0F3C0CE010E94D8
:1022A00091096C01F801908F878B009729F4C80180
:1022B0000E94BA098FEFD5C0C60165EA70E0AE0191
:1022C0000E94141E9E0121503040F8018789908D94
:1022D0006C01C20ED31EC8014996B40148E050E01B
:1022E0000E941B1EF80110A2CB2DF4E0FB1508F490
:1022F000C4E0F801C68B88249924689481F8800E84
:10230000911EC4010E94750BC8010C960E94750BAA
:10231000F8011187008785E090E08C1B9109958773
:102320008487138B028BC601B201A3010E94050CA6
:10233000F80191838083E114F10419F0F70111830E
:1023400000830FB6F8940F928091C3048F5F80933F
:10235000C3048091B9049091BA040097D9F5109301
:10236000BA040093B9048091C304813009F041C0DC
:10237000C0E0D0E0CE01880F991F880F991F880F09
:10238000991F8C0F9D1F85539B4F0E94670B2196B1
:10239000C530D10579F7C8EFD4E0CE010E94670BB4
:1023A0000F2EF1E0EF2EF5E0FF2EF02DC7010E9479
:1023B000670B8AE095E00E94670B83E195E00E943D
:1023C000670BD093C804C093C704F092C604E09290
:1023D000C5040FC08091BF04882359F4E091B9046B
:1023E000F091BA048689B81620F01093BA040093CD
:1023F000B904F80186899091C904981710F4809364
:10240000C9049091CA049F5F9093CA049091C0043C
:10241000981710F48093C00490E09C01220F331FA2
:10242000220F331F220F331F820F931F85539B4FA1
:10243000B4010E94790B0F900FBE8091BF048823D6
:1024400069F0E091B904F091BA0486898B1540F4E3
:102450000E94CB0C81E005C08FEF03C081E001C07A
:1024600081E0DF91CF911F910F91FF90EF90DF906E
:10247000CF90BF909F908F907F906F905F904F9084
:102480000895FC01D08EC78A17CFEF92FF920F9369
:102490001F93CF93DF937C010FB6F8940F92809136
:1024A000B9049091BA04E816F90621F0E114F10498
:1024B00041F402C0EE24FF24C091B904D091BA04C3
:1024C00001C0E7018E010E5F1F4FC8010E94DF0BA4
:1024D0008C899D89009721F0CE010C960E94DF0B1C
:1024E00083E195E0B8010E94790B8091C4048F5F6D
:1024F0008093C4048091CA048F5F8093CA040F90B4
:102500000FBE8091BF04882329F0E114F10411F477
:102510000E94CB0CDF91CF911F910F91FF90EF9014
:102520000895AF92BF92CF92DF92EF92FF920F93F6
:1025300080E394E161EE70E045E550E020E030E0BA
:1025400000E0EE24FF24CC24DD24AA24BB240E9436
:102550002E11813049F4F8948093BF041092C20484
:102560001092C1040E94950C0F91FF90EF90DF90A4
:10257000CF90BF90AF900895F8941092BF040E943E
:10258000CA0C08958091BE048F5F8093BE040895A5
:102590000FB6F8940F928091C1049091C2040F90ED
:1025A0000FBE08958091C1049091C2040895809156
:1025B000C30408950F931F93CF93DF938091BE04BC
:1025C000882309F0B3C08091C1049091C2040196A0
:1025D0009093C2048093C1048091C1049091C2047D
:1025E000009799F58091C7049091C8042091C50483
:1025F0003091C6043093C8042093C7049093C60456
:102600008093C5048091BB048F5F8093BB04E091ED
:10261000C704F091C8048081882339F48FEF9FEFBD
:102620009093E7008093E60010C0E091C704F0911A
:10263000C8040580F681E02D0680F781E02D8281B7
:1026400093819093E7008093E6002091C10430913C
:10265000C2048091E6009091E7002817390708F43A
:102660006AC0E091C704F091C8048081882399F082
:10267000E091C704F091C8040580F681E02DC68181
:10268000D7818A819B812091C1043091C20428178F
:102690003907F8F419C08FEF9FEF9093E70080930C
:1026A000E60049C0E091C704F091C8040580F681B6
:1026B000E02DC681D7818A819B812091C104309110
:1026C000C2042817390728F49093E7008093E600A6
:1026D00032C08E010E5F1F4FC8010E94DF0B8C8934
:1026E0009D89009721F0CE010C960E94DF0B8E8908
:1026F0009091C004981710F48093C00490E09C015E
:10270000220F331F220F331F220F331F820F931FFD
:1027100085539B4FB8010E94790BE091C704F0915B
:10272000C8048081882309F0BDCFB5CF8091BD0456
:102730008F5F8093BD04DF91CF911F910F9108951A
:10274000AF92BF92CF92DF92EF92FF920F931F93BF
:10275000CF93DF930FB6F8940F928091BE0481500F
:102760008093BE048091BE04882309F069C08091E3
:10277000C304882381F567C0D601ED91FC91C68121
:10278000D781CE010C960E94DF0B8E010E5F1F4F8A
:10279000C8010E94DF0B8E899091C004981710F435
:1027A0008093C00490E09C01220F331F220F331F3F
:1027B000220F331F820F931F85539B4FB8010E9436
:1027C000790BE091B904F091BA049E898689981733
:1027D00088F0BA2C0FC0BB240F2EFAE0EF2EF5E0E4
:1027E000FF2EF02D0F2EFFE0CF2EF5E0DF2EF02D87
:1027F000AA24A394F7018081882309F0BDCF80919A
:10280000BD04882381F08091BD04882399F00E9443
:10281000DA128091BD0481508093BD048091BD0483
:102820008823A9F707C0F1E0BF1621F08091BC040E
:10283000813041F41092BC040E94CB0C81E003C0B3
:1028400080E001C080E00F900FBEDF91CF911F911B
:102850000F91FF90EF90DF90CF90BF90AF900895D1
:1028600003E115E00F2EF8E1EF2EF5E0FF2EF02D3D
:102870008091C4048823E1F30E94C212D801CC9154
:102880000E94A013CC23A1F30FB6F8940F92D701A6
:10289000ED91FC91C681D781CE0102960E94DF0B9B
:1028A0008091C30481508093C3048091C4048150FB
:1028B0008093C4040F900FBE8F89988D0E94BA092F
:1028C000CE010E94BA09D4CFCF93DF93EC010097D9
:1028D000B1F00E94C2128091C1049091C204C80F4D
:1028E000D91F8091B9049091BA0402960E94DF0B1F
:1028F000CE010E94F7100E94A013882311F40E94B9
:10290000CB0CDF91CF9108950F931F93CF93DF935B
:102910008C01EB010E94C212F80180819181C80FE5
:10292000D91F2091C1043091C2042817390768F4D7
:10293000C817D90750F58091C1049091C204D18382
:10294000C0838C179D07B0F40BC0C817D907C8F017
:102950008091C1049091C2048C179D0790F015C01E
:102960008091B9049091BA0402960E94DF0BCE01C7
:102970000E94F7100E94A013882359F40E94CB0CE8
:1029800008C0F801D183C083EBCFF801D183C083A5
:10299000F1CFDF91CF911F910F9108958091BE04E7
:1029A000882399F48091C00490E0FC01EE0FFF1F92
:1029B000EE0FFF1FEE0FFF1F8E0F9F1FFC01E55351
:1029C000FB4F8081882329F01BC081E08093BC04E9
:1029D00008958091C00481508093C0048091C00408
:1029E00090E0FC01EE0FFF1FEE0FFF1FEE0FFF1F29
:1029F0008E0F9F1FFC01E553FB4F8081882349F315
:102A00008091C00490E0FC01EE0FFF1FEE0FFF1F4E
:102A1000EE0FFF1FE80FF91FE553FB4FA181B281B5
:102A200012960D90BC91A02DB283A183CF01039685
:102A3000A817B90731F412968D919C911397928340
:102A400081830180F281E02D868197819093BA0481
:102A50008093B9040895CF93DF93EB016091B9049B
:102A60007091BA04645F7F4F0E94A20B8091B904F9
:102A70009091BA0402960E94DF0B8091C10490915C
:102A8000C2048C0F9D1F0E94F710DF91CF91089513
:102A90000F931F93CF93DF93DC011596ED91FC917B
:102AA000169706811781E8012C96CE010E94DF0B54
:102AB0008091BE048823E9F4E8012296CE010E94A9
:102AC000DF0BF80186899091C004981710F4809369
:102AD000C00490E09C01220F331F220F331F220FEE
:102AE000331F820F931F85539B4FBE010E94790BAA
:102AF00005C08AE095E0BE010E94790BE091B9041F
:102B0000F091BA0481E0D80156962C915697968997
:102B1000291708F480E0DF91CF911F910F9108955C
:102B2000FC018091BB0480838091C1049091C20418
:102B3000928381830895FC010FB6F8940F928091DF
:102B4000BB049081981749F08091C1049091C20410
:102B50002181328182179307F0F48091C104909112
:102B6000C20421813281DB014D915C911197821B5E
:102B7000930B8417950788F48091C1049091C20447
:102B8000281B390B240F351F2D933C93CF010E9436
:102B9000901580E003C081E001C081E00F900FBE7E
:102BA000089581E08093BC04089590B59F7790BD0F
:102BB00020B590E0AC0102C0440F551F6A95E2F7C2
:102BC000BA01622B60BD089590B5906890BD20B5A4
:102BD00090E0AC0102C0440F551F6A95E2F7BA01BC
:102BE000622B60BD08952F923F924F925F926F9239
:102BF0007F928F929F92AF92BF92CF92DF92EF928D
:102C0000FF920F931F93CF93DF9300D000D0CDB7E7
:102C1000DEB7DC01CB012BB1880F991FAA1FBB1FA8
:102C2000880F991FAA1FBB1F880F991FAA1FBB1FC0
:102C3000880F991FAA1FBB1F1C012D012091D900CD
:102C40003091DA004091DB005091DC006091DD00B2
:102C50007091DE008091DF009091E000A22CB32CF7
:102C6000C42CD52CEE24FF2400E010E00E940917AC
:102C7000822E932EA42EB52E089481089108A108C7
:102C8000B10889829A82AB82BC8289819A81AB81A8
:102C9000BC8189B989819A81AB81BC81892F60E02F
:102CA0000E94D5150F900F900F900F90DF91CF914C
:102CB0001F910F91FF90EF90DF90CF90BF90AF905A
:102CC0009F908F907F906F905F904F903F902F904C
:102CD0000895FF920F931F93CF93DF9300D00F922D
:102CE000CDB7DEB719821A821B828A818A81882336
:102CF00009F072C08981813009F46EC00F2EF5E0B1
:102D0000FF2EF02D8A8190E08C0102951295107FA4
:102D10001027007F1027080F191F08511F4FF801B7
:102D20008481813009F04AC080858085843008F034
:102D300045C081858185823008F040C0858166E08C
:102D40000E94E4159BB1F8018681880F892B8BB90D
:102D500060817181828193810E94F315F8018085E1
:102D600061E00E94E415F801818563E00E94E415AA
:102D7000FB82F80182856B810E94E415F80183854E
:102D800064E00E94E415F801308947852685958521
:102D900084854295440F440F407C379533273795FF
:102DA000342B2295220F207E232B9295907F922BFD
:102DB000880F880F880F892B8AB904C081E0898326
:102DC00080931C058A818F5F8A838A81882321F4FE
:102DD0008981813009F096CF0F900F900F90DF918D
:102DE000CF911F910F91FF900895E82FF92F04C004
:102DF0008BB185FFFDCF9CB991919923C9F75E985E
:102E00000895FC015F9B04C08CB181935F99FCCF56
:102E10000895A4E3B0E0EFE0F7E10C94B71D298B2F
:102E20003A8B4B8B5C8B6D8B7E8B8F8B988FA986AF
:102E3000BA86CB86DC86ED86FE860F87188B898462
:102E40009A84AB84BC848D859E85AF85B8890989B9
:102E50001A892B893C890DA31EA32FA338A7CD88DF
:102E6000DE88EF88F88C0097A105B10509F0B5C39D
:102E7000C814D904EA04FB0408F04DC110E081161F
:102E800010E0910611E0A10610E0B10658F42FEF12
:102E900082169104A104B10409F090F480E090E05E
:102EA000DC0117C030E0831630E0930630E0A30663
:102EB00031E0B30650F480E190E0A0E0B0E009C05A
:102EC00088E090E0A0E0B0E004C088E190E0A0E0FD
:102ED000B0E0B501A401082E04C07695679557951A
:102EE00047950A94D2F7FA01E750FF4F208140E25C
:102EF00050E060E070E0481B590B6A0B7B0B421BF3
:102F00005109610971094115510561057105A1F169
:102F1000042E04C0880C991CAA1CBB1C0A94D2F76E
:102F200097018601042E04C0000F111F221F331FBA
:102F30000A94D2F780E290E0841B950BCDA0DEA02E
:102F4000EFA0F8A404C0F694E794D794C7948A95A8
:102F5000D2F7C02AD12AE22AF32A0DA11EA12FA15D
:102F600038A504C0000F111F221F331F4A95D2F746
:102F70000DA31EA32FA338A725016624772495014E
:102F800084012070307009A31AA32BA33CA3C701AE
:102F9000B601A30192010E94941D2D8F3E8F4F8F89
:102FA00058A3698F7A8F8B8F9C8FC701B601A301BD
:102FB00092010E94941DCA01B90129A13AA14BA115
:102FC0005CA10E94611DAB01BC01098D1A8D2B8D86
:102FD0003C8D7801DD24CC240DA11EA12FA138A5A4
:102FE000C901AA27BB27C82AD92AEA2AFB2A0D8D9C
:102FF0001E8D2F8D38A1C416D506E606F70638F5C6
:103000000150104020403040098F1A8F2B8F3C8F89
:10301000C80CD91CEA1CFB1CC814D904EA04FB0424
:10302000D0F0C416D506E606F706A8F40D8D1E8D61
:103030002F8D38A10250104020403040098F1A8F48
:103040002B8F3C8FC80CD91CEA1CFB1C04C0098FB9
:103050001A8F2B8F3C8FC41AD50AE60AF70AC701CC
:10306000B601A30192010E94941D2D8F3E8F4F8FB8
:1030700058A369A77AA78BA79CA7C701B601A3018C
:1030800092010E94941DCA01B90129A13AA14BA144
:103090005CA10E94611D6B017C0149A55AA56BA52D
:1030A0007CA59A01112700274DA15EA16FA178A5EB
:1030B00060707070042B152B262B372B8D8D9E8DF9
:1030C000AF8DB8A10C151D052E053F05C0F4019765
:1030D000A109B109080D191D2A1D3B1D0815190567
:1030E0002A053B0560F00C151D052E053F0538F43B
:1030F0008D8D9E8DAF8DB8A10297A109B109098D63
:103100001A8D2B8D3C8D7801DD24CC24C82AD92A38
:10311000EA2AFB2AA5C481149104A104B10451F444
:1031200061E070E080E090E0A50194010E94941DB0
:1031300049015A0110E0811610E0910611E0A10644
:1031400010E0B10658F42FEF82169104A104B104E7
:1031500009F090F480E090E0DC0117C030E08316C5
:1031600030E0930630E0A30631E0B30650F480E18E
:1031700090E0A0E0B0E009C088E090E0A0E0B0E01E
:1031800004C088E190E0A0E0B0E0B501A401082E01
:1031900004C076956795579547950A94D2F7FA013A
:1031A000E750FF4F2081AC01BD01420F511D611D51
:1031B000711D80E290E0A0E0B0E0841B950BA60BAF
:1031C000B70B51F4C818D908EA08FB08F1E04F2EF4
:1031D000512C612C712C24C1082E04C0880C991C20
:1031E000AA1CBB1C0A94D2F797018601042E04C0C6
:1031F00036952795179507950A94D2F709A31AA330
:103200002BA33CA397018601082E04C0000F111FB9
:10321000221F331F0A94D2F70D8F1E8F2F8F38A3D2
:103220000DA11EA12FA138A504C03695279517958D
:1032300007954A95D2F7B901A8010D8D1E8D2F8DE6
:1032400038A1042B152B262B372B0D8F1E8F2F8F7C
:1032500038A30DA11EA12FA138A504C0000F111F76
:10326000221F331F8A95D2F70DA31EA32FA338A7C1
:10327000250166247724950184012070307009A708
:103280001AA72BA73CA769A17AA18BA19CA1A30196
:1032900092010E94941D298F3A8F4B8F5C8F6B0196
:1032A0007C0169A17AA18BA19CA1A30192010E943A
:1032B000941DCA01B90129A53AA54BA55CA50E9498
:1032C000611DAB01BC017601DD24CC240D8D1E8D6A
:1032D0002F8D38A1C901AA27BB27C82AD92AEA2AD3
:1032E000FB2A098D1A8D2B8D3C8DC416D506E6065A
:1032F000F70638F5015010402040304009A31AA3CA
:103300002BA33CA3C80CD91CEA1CFB1CC814D90471
:10331000EA04FB04D0F0C416D506E606F706A8F4C6
:10332000098D1A8D2B8D3C8D02501040204030406D
:1033300009A31AA32BA33CA3C80CD91CEA1CFB1C91
:1033400004C009A31AA32BA33CA3C41AD50AE60AF6
:10335000F70AC701B601A30192010E94941D298FAB
:103360003A8F4B8F5C8F6DA77EA78FA798ABC70155
:10337000B601A30192010E94941DCA01B90129A5B9
:103380003AA54BA55CA50E94611D8B019C014DA532
:103390005EA56FA578A9DA01992788274D8D5E8DE6
:1033A0006F8D78A160707070842B952BA62BB72B36
:1033B000498D5A8D6B8D7C8D80179107A207B307BD
:1033C000F0F44150504060407040880D991DAA1D96
:1033D000BB1D88159905AA05BB0588F080179107C4
:1033E000A207B30760F4498D5A8D6B8D7C8D4250D6
:1033F000504060407040880D991DAA1DBB1D6C0196
:103400007D01C01AD10AE20AF30A09A11AA12BA16F
:103410003CA1380155244424442A552A662A772A97
:103420008501222733270D8F1E8F2F8F38A39501FB
:1034300084012070307009A71AA72BA73CA7C701E9
:10344000B6012D8D3E8D4F8D58A10E94941D298F60
:103450003A8F4B8F5C8F69A37AA38BA39CA3C70180
:10346000B6012D8D3E8D4F8D58A10E94941DCA012D
:10347000B90129A53AA54BA55CA50E94611DAB0128
:10348000BC0109A11AA12BA13CA17801DD24CC2407
:103490000DA11EA12FA138A5C901AA27BB27C82AA3
:1034A000D92AEA2AFB2A098D1A8D2B8D3C8DC41648
:1034B000D506E606F70638F50150104020403040AA
:1034C00009A31AA32BA33CA3C80CD91CEA1CFB1C00
:1034D000C814D904EA04FB04D0F0C416D506E606E5
:1034E000F706A8F4098D1A8D2B8D3C8D02501040E3
:1034F0002040304009A31AA32BA33CA3C80CD91C1D
:10350000EA1CFB1C04C009A31AA32BA33CA3C41AE6
:10351000D50AE60AF70AC701B6012D8D3E8D4F8DFB
:1035200058A10E94941D298F3A8F4B8F5C8F6DA7F5
:103530007EA78FA798ABC701B6012D8D3E8D4F8D0D
:1035400058A10E94941DCA01B90129A53AA54BA50D
:103550005CA50E94611D8B019C014DA55EA56FA518
:1035600078A9DA01992788274DA15EA16FA178A5D6
:1035700060707070842B952BA62BB72B498D5A8DBC
:103580006B8D7C8D80179107A207B307D0F4415053
:10359000504060407040880D991DAA1DBB1D8815C4
:1035A0009905AA05BB0568F080179107A207B30724
:1035B00040F4498D5A8D6B8D7C8D42505040604057
:1035C000704009A11AA12BA13CA17801DD24CC24D3
:1035D000C42AD52AE62AF72A46C2C816D906EA0618
:1035E000FB0608F42DC2803010E0910711E0A1071E
:1035F00010E0B10750F48F3F9105A105B10509F026
:1036000088F400E010E0980116C0803020E09207B6
:1036100020E0A20721E0B20750F400E110E020E032
:1036200030E009C008E010E020E030E004C008E12C
:1036300010E020E030E0AC01BD01002E04C0769522
:103640006795579547950A94D2F7FA01E750FF4FCF
:103650004081040F111D211D311D40E250E060E04A
:1036600070E0401B510B620B730BA1F48C159D0590
:10367000AE05BF0508F4EBC10DA11EA12FA138A511
:10368000442455243201081519052A053B0508F084
:10369000E1C1D9C1342E2C013D0104C0440C551C9C
:1036A000661C771C4A95D2F7D501C401002E04C0D0
:1036B000B695A795979587950A94D2F7482A592ADF
:1036C0006A2A7B2AA5019401032C04C0220F331F10
:1036D000441F551F0A94D2F729A73AA74BA75CA706
:1036E000B701A601002E04C07695679557954795BA
:1036F0000A94D2F749A35AA36BA37CA3C701B601CE
:10370000032C04C0660F771F881F991F0A94D2F7F5
:103710006D8F7E8F8F8F98A38DA19EA1AFA1B8A52D
:1037200004C0B695A795979587950A95D2F74D8DC4
:103730005E8D6F8D78A1482B592B6A2B7B2B4D8F7B
:103740005E8F6F8F78A34301AA24BB24930182016B
:10375000207030700DA71EA72FA738AB69A17AA1E2
:103760008BA19CA1A50194010E94941D298F3A8FE1
:103770004B8F5C8F6B017C0169A17AA18BA19CA10D
:10378000A50194010E94941DCA01B9012DA53EA571
:103790004FA558A90E94611DDC01CB017601DD24F3
:1037A000CC240D8D1E8D2F8D38A1A901662777277A
:1037B000C42AD52AE62AF72A098D1A8D2B8D3C8D2D
:1037C000C816D906EA06FB0638F50150104020401D
:1037D000304009A31AA32BA33CA3C40CD51CE61CA0
:1037E000F71CC414D504E604F704D0F0C816D906B3
:1037F000EA06FB06A8F4098D1A8D2B8D3C8D02502C
:1038000010402040304009A31AA32BA33CA3C40CB2
:10381000D51CE61CF71C04C009A31AA32BA33CA3C8
:10382000C81AD90AEA0AFB0AC701B601A501940120
:103830000E94941D298F3A8F4B8F5C8F69AB7AABB6
:103840008BAB9CABC701B601A50194010E94941DEE
:10385000CA01B9012DA53EA54FA558A90E94611D19
:103860004B015C0149A95AA96BA97CA99A011127AE
:1038700000278D8D9E8DAF8DB8A1A070B070082BE4
:10388000192B2A2B3B2B898D9A8DAB8DBC8D08155E
:1038900019052A053B05E0F40197A109B109040DBA
:1038A000151D261D371D041515052605370580F045
:1038B000081519052A053B0558F4898D9A8DAB8D9D
:1038C000BC8D0297A109B109040D151D261D371DD8
:1038D000B901A801481959096A097B094D8F5E8F02
:1038E0006F8F78A309A11AA12BA13CA17801DD2437
:1038F000CC24C82AD92AEA2AFB2AFFEF8F2EFFEF11
:103900009F2EA12CB12C8C209D20AE20BF208701A2
:1039100022273327098F1A8F2B8F3C8F49A45AA453
:103920006BA47CA42FEF3FEF40E050E042225322F3
:103930006422752229A53AA54BA55CA58A012227F8
:10394000332709A31AA32BA33CA3C501B401A301E8
:1039500092010E94611D69A77AA78BA79CA7C50148
:10396000B40129A13AA14BA15CA10E94611D4B01A8
:103970005C01698D7A8D8B8D9C8DA30192010E94D3
:10398000611D2B013C01698D7A8D8B8D9C8D29A148
:103990003AA14BA15CA10E94611DAB01BC01840C4A
:1039A000951CA61CB71C09A51AA52BA53CA5C901E9
:1039B000AA27BB27880E991EAA1EBB1E8414950435
:1039C000A604B70420F4405050406F4F7F4FC5010C
:1039D000AA27BB27840F951FA61FB71F0D8D1E8D0D
:1039E0002F8D38A1081719072A073B0718F18017F0
:1039F0009107A207B307A1F554019924882489A54A
:103A00009AA5ABA5BCA5A070B070880E991EAA1E81
:103A1000BB1E4DA15EA16FA178A5032C04C0440F6D
:103A2000551F661F771F0A94D2F7481559056A0576
:103A30007B05B0F40894C108D108E108F10810C072
:103A4000442455243201CC24DD2476010CC04424C6
:103A50005524320181E0C82ED12CE12CF12C03C079
:103A6000442455243201FE01319688E0DF011D9285
:103A70008A95E9F7C982DA82EB82FC824D825E8206
:103A80006F8278862C2D3A814B815C81642D7E81FA
:103A90008F819885E496E1E10C94D31D97FB092E64
:103AA00007260AD077FD04D02BD006D000201AF4C8
:103AB000709561957F4F0895F6F7909581959F4F8A
:103AC0000895629FD001739FF001829FE00DF11D68
:103AD000649FE00DF11D929FF00D839FF00D749F88
:103AE000F00D659FF00D9927729FB00DE11DF91F34
:103AF000639FB00DE11DF91FBD01CF011124089591
:103B0000AA1BBB1B51E107C0AA1FBB1FA617B70703
:103B100010F0A61BB70B881F991F5A95A9F780951F
:103B20009095BC01CD010895A1E21A2EAA1BBB1BE2
:103B3000FD010DC0AA1FBB1FEE1FFF1FA217B30779
:103B4000E407F50720F0A21BB30BE40BF50B661F8F
:103B5000771F881F991F1A9469F760957095809553
:103B600090959B01AC01BD01CF0108952F923F922A
:103B70004F925F926F927F928F929F92AF92BF927D
:103B8000CF92DF92EF92FF920F931F93CF93DF9329
:103B9000CDB7DEB7CA1BDB0B0FB6F894DEBF0FBE86
:103BA000CDBF09942A88398848885F846E847D84D3
:103BB0008C849B84AA84B984C884DF80EE80FD80D5
:103BC0000C811B81AA81B981CE0FD11D0FB6F8944B
:103BD000DEBF0FBECDBFED010895FC0188279927F8
:103BE000E89421912032E9F3293010F02E30C8F307
:103BF0002B3241F02D3239F4689404C00E944B1EE0
:103C0000820F911D219120532A30C0F31EF490950C
:103C100081959F4F0895FB01DC0102C001900D9238
:103C200041505040D8F70895DC0101C06D934150D8
:103C30005040E0F70895FB01DC014150504048F04E
:103C400001900D920020C9F701C01D9241505040D3
:103C5000E0F70895FB019F01E8944230C4F045323B
:103C6000B4F44A3029F497FB1EF4909581959F4F48
:103C7000642F77270E94801D805D8A330CF0895D58
:103C80008193CB010097A1F716F45DE25193108266
:103C9000C9010C945C207AE0979F902D879F802D1E
:103CA000910D11240895A0E0B0E0E9E5FEE10C9447
:103CB000C61DFE013596619171918091AC0690917F
:103CC000AD06AF010E94681E2096E2E00C94E21D52
:103CD000ADE0B0E0EEE6FEE10C94B61D3C017D8760
:103CE0006C875A01FC0117821682838181FFC8C14B
:103CF0002E010894411C511CF3019381EC85FD8534
:103D000093FD859193FF8191FD87EC87882309F4CA
:103D1000B3C1853241F493FD859193FF8191FD8775
:103D2000EC87853229F490E0B3010E946C20E4CF47
:103D3000FF24EE2410E01032B0F48B3269F08C32A4
:103D400028F4803251F0833271F40BC08D3239F097
:103D5000803349F411602CC01260146029C01860CF
:103D600027C0106125C017FD2EC0282F20532A30F0
:103D700098F416FF08C08F2D880FF82EFF0CFF0C4B
:103D8000F80EF20E15C08E2D880FE82EEE0CEE0CFC
:103D9000E80EE20E10620CC08E3221F416FD6CC1EA
:103DA000106406C08C3611F4106802C0883659F4CD
:103DB000EC85FD8593FD859193FF8191FD87EC87CF
:103DC000882309F0B8CF982F9554933018F090526B
:103DD000933038F424E030E0A20EB31E3FE3398381
:103DE0000FC0833631F0833781F0833509F05AC034
:103DF00022C0F5018081898322E030E0A20EB31E4B
:103E000021E0C22ED12C420114C092E0292E312C87
:103E10002A0C3B1CF5018080918016FF03C06F2D9A
:103E200070E002C06FEF7FEFC4010E9451206C016F
:103E300051011F7715C082E0282E312C2A0C3B1C23
:103E4000F5018080918016FF03C06F2D70E002C0E5
:103E50006FEF7FEFC4010E9446206C011068510192
:103E600013FD1CC006C080E290E0B3010E946C20EC
:103E7000EA948E2D90E0C816D906A8F30FC0F4017D
:103E800017FD859117FF81914F0190E0B3010E94CA
:103E90006C20E110EA940894C108D108C114D1043F
:103EA00071F7E7C0843611F0893651F5F50117FF37
:103EB00007C080819181A281B38124E030E008C0F5
:103EC00080819181AA2797FDA095BA2F22E030E04A
:103ED000A20EB31E012F0F76B7FF08C0B095A095B4
:103EE000909581959F4FAF4FBF4F0068BC01CD01AA
:103EF000A2012AE030E00E949820D82ED4183FC0BA
:103F0000853721F41F7E2AE030E020C0197F8F36EC
:103F1000A9F0803720F4883509F0AEC00BC0803797
:103F200021F0883709F0A8C001C0106114FF09C052
:103F3000146007C014FF08C0166006C028E030E017
:103F400005C020E130E002C020E132E0F50117FFBA
:103F500007C0608171818281938144E050E006C096
:103F60006081718180E090E042E050E0A40EB51ED7
:103F7000A2010E949820D82ED418012F0F7706FF97
:103F800009C00E7FDF1430F404FF06C002FD04C038
:103F90000F7E02C01D2D01C01F2D802F90E004FF59
:103FA0000CC0FE01ED0DF11D2081203311F4097EBE
:103FB00009C002FF06C01E5F05C08678907000979A
:103FC00009F01F5F802E992403FD12C000FF0DC071
:103FD000FD2C1E1550F4FE0CF11A1E2D06C080E2B9
:103FE00090E0B3010E946C201F5F1E15C0F304C057
:103FF0001E1510F4E11A01C0EE2484FE0FC080E308
:1040000090E0B3010E946C2082FE1FC081FE03C0BD
:1040100088E590E010C088E790E00DC0C401867884
:104020009070009791F081FC02C080E201C08BE2A9
:1040300007FD8DE290E0B3010E946C2006C080E392
:1040400090E0B3010E946C20FA94DF14C0F3DA947C
:10405000F201ED0DF11D808190E0B3010E946C2012
:10406000DD20A9F706C080E290E0B3010E946C2039
:10407000EA94EE20C1F740CEF3018681978102C019
:104080008FEF9FEF2D96E2E10C94D21DFC0105907D
:10409000615070400110D8F7809590958E0F9F1F4A
:1040A0000895FC016150704001900110D8F780958F
:1040B00090958E0F9F1F0895DC01FC01672F719171
:1040C0007723E1F7329704C07C916D9370836291FE
:1040D000AE17BF07C8F308950F931F93CF93DF93D5
:1040E0008C01EB018B8181FF1BC082FF0DC02E81F3
:1040F0003F818C819D812817390764F4E881F9811B
:104100000193F983E88306C0E885F985802F099536
:10411000009731F48E819F8101969F838E8302C028
:104120000FEF1FEFC801DF91CF911F910F910895FD
:10413000FA01AA27283051F1203181F1E8946F93D8
:104140006E7F6E5F7F4F8F4F9F4FAF4FB1E03ED07E
:10415000B4E03CD0670F781F891F9A1FA11D680F1C
:10416000791F8A1F911DA11D6A0F711D811D911D4F
:10417000A11D20D009F468943F912AE0269F1124C4
:104180003019305D3193DEF6CF010895462F477028
:10419000405D4193B3E00FD0C9F7F6CF462F4F7083
:1041A000405D4A3318F0495D31FD4052419302D0E1
:1041B000A9F7EACFB4E0A695979587957795679587
:1041C000BA95C9F700976105710508959B01AC0187
:1041D0000A2E06945795479537952795BA95C9F7AE
:1041E000620F731F841F951FA01D0895F894FFCFC1
:1041F00061733A25640A00FFFFFFFF3503617364B2
:1042000000FC020C00FF00000C01FF00000C02FF8C
:1042100000000C03FF00000C040000000C0500006F
:10422000000C060000000C070000000B00FF00005F
:104230000B01FF00000B02FF00000B04FF00000B4E
:1042400005FF00000B06FF00000B07FF00000D013B
:10425000FF00000D00FF00003738392F3435362AB3
:104260003132332D20303D2B800024F4000000003B
:104270000049444C4500FFFF80250000010000007C
:10428000030000000101000000000102020303031B
:1042900003040404040404040405050505050505D8
:1042A00005050505050505050506060606060606B7
:1042B000060606060606060606060606060606069E
:1042C0000606060606060606060707070707070787
:1042D000070707070707070707070707070707076E
:1042E000070707070707070707070707070707075E
:1042F000070707070707070707070707070707074E
:104300000707070707070707070808080808080836
:10431000080808080808080808080808080808081D
:10432000080808080808080808080808080808080D
:1043300008080808080808080808080808080808FD
:1043400008080808080808080808080808080808ED
:1043500008080808080808080808080808080808DD
:1043600008080808080808080808080808080808CD
:1043700008080808080808080808080808080808BD
:0A43800008080808080808080800EB
:00000001FF
